:100000000C942A000C94F0070C941D080C944A08D8
:100010000C9447000C9447000C9447000C94470044
:100020000C9447000C9447000C9447000C94470034
:100030000C9447000C9447000C9447000C94470024
:100040000C94CD050C9447000C9447000C94470089
:100050000C94470011241FBECFE5D8E0DEBFCDBF12
:1000600010E0A0E6B0E0E0ECF6E102C005900D92F1
:10007000AC38B107D9F720E0ACE8B0E001C01D9280
:10008000A63BB207E1F70E9456050C945E0B0C9458
:1000900000000E9493010E9497090E948F0081E056
:1000A00008950F931F93CF93DF9300D000D000D01B
:1000B000CDB7DEB78CEA90E00E94A1010CEA10E017
:1000C000F8018081898381818A8382818B83838106
:1000D0008C8384818D83CE0101960E949A09F80158
:1000E000618180810E94C700F80182810E94110114
:1000F000F80183810E943401C8010E94550181E00A
:1001000026960FB6F894DEBF0FBECDBFDF91CF911C
:100110001F910F91089581E080938C00089582E7EC
:1001200090E00E940A0483E690E00E94570280E675
:1001300090E00E94EB0141E063E081E00E94FA055B
:1001400041E064E083E00E94FA0541E065E083E07D
:100150000E94FA0541E067E083E00E94FA050E94F0
:10016000D1080E940D090E945B0982E890E00E947C
:10017000250741E060E070E08BE890E00E94D9073D
:1001800081E00E94B5070E94770880E008950F93F0
:100190001F93CF93DF93C82FD62F8231B0F46832EC
:1001A000A0F481E00E9482020C2F10E02AE030E0EF
:1001B00042E150E064E670E082E390E00E9437059F
:1001C000682F81E00E94BE0207C0C53128F0DE32F0
:1001D00018F081E00E94A002CB31B0F0D734A0F03B
:1001E00080E00E9482020C2F10E028E230E04AE119
:1001F00050E064E670E082E390E00E943705682FEB
:1002000080E00E94BE0207C0CC3128F4DB3418F431
:1002100080E00E94A00281E0DF91CF911F910F91B9
:1002200008950F931F93082F85EF800F833198F463
:1002300082E00E94820210E02AE030E04EE150E0CD
:1002400064E670E082E390E00E943705682F82E068
:100250000E94BE0205C00D3318F082E00E94A00289
:1002600081E01F910F9108950F931F939BEE980FBC
:10027000983188F4082F10E024E130E04DE250E09E
:1002800064E670E082E390E00E943705682F81E029
:100290000E94A00406C08C3420F060E081E00E943F
:1002A000A00481E01F910F910895CF93DF93EC019B
:1002B00088818A508F3178F48981843160F081356A
:1002C00050F48A818A3038F0813528F48B8184316A
:1002D00010F08B35A8F080918C00813021F480E003
:1002E0000E943C0203C080E00E9421021C8282E73F
:1002F00090E00E947F048CE790E00E945E040FC0B3
:1003000081E08C8310928C0080E00E943C0282E7A6
:1003100090E00E945E048CE790E00E947F0481E000
:10032000DF91CF9108950E945B058DE890E00E94D7
:10033000E50381E890E00E9400050E947C0380E0D4
:100340000895EF92FF920F931F93CF93DF9300D006
:1003500000D0CDB7DEB71A821982009781F17C01F7
:1003600060E0CE0101960E94020409811A812FEFFC
:1003700033E040E050E064E670E080E090E00E940E
:100380003705F7018383BE016D5F7F4F80E00E94D8
:1003900023050B811C812FEF33E040E050E064E641
:1003A00070E080E090E00E943705F7018283B7019A
:1003B0006F5F7F4FC7010E94900380E001C082E021
:1003C0000F900F900F900F90DF91CF911F910F9191
:1003D000FF90EF900895EF92FF921F93CF93DF93DA
:1003E000009721F582E027C0C12FD0E0CE01880F11
:1003F000991FC80FD91FCE0DDF1D41E0698188818B
:100400000E94FA059A819A3031F4698141E088812D
:100410000E946C0609C09B3031F4698140E08881FC
:100420000E946C0601C083E01F5F03C07C0110E0E6
:1004300081E01123C9F2DF91CF911F91FF90EF90DE
:100440000895CF93DF93811113C090E0EC01CC0F9E
:10045000DD1FC80FD91FC05ADF4F41E06981888175
:100460000E94FA05698141E088810E946C0601C002
:1004700083E0DF91CF910895CF93DF93811113C073
:1004800090E0EC01CC0FDD1FC80FD91FC05ADF4F21
:1004900041E0698188810E94FA05698140E0888194
:1004A0000E946C0601C083E0DF91CF910895EF9226
:1004B000FF921F93CF93DF930097C9F482E01CC093
:1004C000C12FD0E0CE01880F991F880F991FC80F48
:1004D000D91FCE0DDF1D41E0698188810E94FA0598
:1004E00041E06B818A810E94FA051F5F02C07C0196
:1004F00010E0133028F380E0DF91CF911F91FF903F
:10050000EF900895CF93DF938330B0F490E0EC0147
:10051000CC0FDD1FCC0FDD1FC80FD91FCD59DF4F0A
:1005200041E0698188810E946C0640E06B818A818C
:100530000E946C0680E001C083E0DF91CF910895B6
:10054000CF93DF938330B0F490E0EC01CC0FDD1F4C
:10055000CC0FDD1FC80FD91FCD59DF4F40E0698197
:1005600088810E946C0640E06B818A810E946C0643
:1005700080E001C083E0DF91CF910895833070F572
:10058000653670F5282F30E0F901EE0FFF1FEE0FF2
:10059000FF1F2E0F3F1FF901ED59FF4F848182305D
:1005A00071F018F4813031F01DC0833069F084306F
:1005B00081F018C0862F0E94F10880E00895862FF0
:1005C0000E94390980E00895862F0E944A0980E040
:1005D0000895862F0E947B0980E0089583E00895A6
:1005E00083E0089581E008951F93CF93DF931F92D6
:1005F000CDB7DEB78AE68A95F1F700C0AE014F5F4E
:100600005F4F66E083E00E94DE06898181111DC094
:1006100085ED8A95F1F70000AE014F5F5F4F66E010
:1006200083E00E94DE068981813011F010E009C06C
:1006300011E007C0AE014F5F5F4F66E083E00E94AC
:10064000DE0689818130B1F301C010E0812F0F9067
:10065000DF91CF911F9108950F931F93CF93DF9355
:100660001F92CDB7DEB710E000E03DC0AE014F5F96
:100670005F4F66E083E00E94DE0689818823B1F344
:1006800080E58A95F1F7AE014F5F5F4F66E083E04A
:100690000E94DE068981813069F427E030E0211B69
:1006A000310981E090E002C0880F991F2A95E2F796
:1006B000082B15C027E030E0211B310981E090E0D4
:1006C00002C0880F991F2A95E2F78095082307C07A
:1006D000AE014F5F5F4F66E083E00E94DE068981D6
:1006E0008130B1F31F5F183040F2802F0F90DF91FF
:1006F000CF911F910F91089541E066E083E00E9441
:10070000FA0541E066E083E00E946C062FEF89E67F
:1007100098E1215080409040E1F700C0000008952A
:10072000CF92DF92EF92FF920F931F93CF936C01C2
:100730007B0141E066E083E00E94FA0540E066E06C
:1007400083E00E946C068FE99CE80197F1F700C0F6
:10075000000041E066E083E00E946C0640E066E055
:1007600083E00E94FA050E94F4028823D9F0C0E0D9
:1007700009C00C2F10E00E942C03F801EF54FF4F2A
:100780008083CF5FC530A8F3E1EBF0E03481408196
:10079000818122819381840F820F890F381304C0D5
:1007A00080E003C081E001C081E0E1EBF0E09281F4
:1007B000D6019C939081F7019083CF911F910F9167
:1007C000FF90EF90DF90CF9008950F931F93CF93FA
:1007D0008C01C0E081E010C0EC2FF0E0EE0FFF1FB5
:1007E000E00FF11F608171816F3F710521F040E0E2
:1007F00080E00E94FA05CF5FCC2371F3CF911F9167
:100800000F910895009721F00E94B10580E00895AE
:1008100082E00895EF92FF921F93CF93DF930097AA
:1008200009F040C082E044C0C12FD0E0CE01880F63
:10083000991F880F991FC80FD91FCE0DDF1D41E0EA
:10084000698188810E94FA059A819C3089F48B81A4
:100850008A3031F4698140E088810E946C0620C0B2
:100860008B30C9F4698141E088810E946C0618C010
:100870009D3099F48B818A3031F4698141E088811F
:100880000E946C060DC08B3051F4698140E0888174
:100890000E946C0605C083E003C083E001C083E0D2
:1008A0001F5F03C07C0110E081E0133008F4BCCF6F
:1008B000DF91CF911F91FF90EF900895CF93DF9339
:1008C0000097B9F0EC0141E0698188810E94FA0546
:1008D0008A818C3031F4698140E088810E946C0605
:1008E0000BC08D3041F4698141E088810E946C0623
:1008F00003C082E001C083E0DF91CF910895CF93E0
:10090000DF930097B9F0EC0141E0698188810E9492
:10091000FA058A818C3031F4698141E088810E9436
:100920006C060BC08D3041F4698140E088810E94E3
:100930006C0603C082E001C083E0DF91CF9108958F
:10094000833008F057C0653608F056C0611113C0F7
:10095000282F30E0F901EE0FFF1FEE0FFF1F2E0FC3
:100960003F1FF901EE58FF4F40E0618180810E94F6
:100970006C0681E00895643689F490E0FC01EE0F86
:10098000FF1FEE0FFF1FE80FF91FEE58FF4F41E06A
:10099000618180810E946C0681E00895282F30E0FB
:1009A000F901EE0FFF1FEE0FFF1F2E0F3F1FF90182
:1009B000EE58FF4F8481823071F018F4813031F0AD
:1009C0001DC0833069F0843081F018C0862F0E94EA
:1009D000F10880E00895862F0E94390980E008958B
:1009E000862F0E944A0980E00895862F0E947B0985
:1009F00080E0089583E0089583E0089581E00895FC
:100A0000EF92FF920F931F93CF937C010E945B059F
:100A1000C0E00EC087010C0F111D40E0F80160819D
:100A200080E00E94FA05F80180810E948705CF5F6F
:100A3000CC2381F30E94780580E0CF911F910F9124
:100A4000FF90EF9008956115710569F081110DC057
:100A50009B01E82FF0E0EF57FF4F6081C9010E9432
:100A6000B10581E0089582E0089583E008950F9331
:100A70001F93CF93DF93EC01F9019B01281B390BE6
:100A8000D801A41BB50B0E94400B9F01241B350B02
:100A9000032E000C440B550B0E94210BCE01820F3C
:100AA000931FDF91CF911F910F9108950E944900EC
:100AB0000E945100FDCF87B18F7387B987B18F7BBB
:100AC00087B987B18F7787B987B18F7D87B987B1AC
:100AD0008F7D87B986B1887F86B986B1816086B9F6
:100AE00086B1826086B986B18B7F86B981E0089530
:100AF00086B1806886B981E0089586B18F7786B91E
:100B000081E0089586B1806486B981E0089597B147
:100B1000907E97B997B1892B87B981E00895349B6E
:100B2000FECF86B1806186B981E0089586B1877F66
:100B300086B981E00895FC0124B1422F50E0518331
:100B4000408395B1292F30E0322F2227242B352BDB
:100B50003183208381E0089586B18F7D86B981E05D
:100B600008951F93CF93DF93EC01162F0E94780511
:100B70000E94AC05812F0E9487050E9482050E9479
:100B800096050E948F05CE010E949B050E947D055F
:100B900081E0DF91CF911F9108951F920F920FB6C0
:100BA0000F9211242F933F934F935F936F937F93F3
:100BB0008F939F93AF93BF93EF93FF93E091910037
:100BC000F0919200309729F080918F0090919000E1
:100BD0000995FF91EF91BF91AF919F918F917F9177
:100BE0006F915F914F913F912F910F900FBE0F909A
:100BF0001F901895843008F067C0683008F066C010
:100C0000423008F065C08130E9F030F0823081F187
:100C1000833009F443C05EC081E090E0062E02C03C
:100C2000880F991F0A94E2F780952AB32823842F0E
:100C300090E002C0880F991F6A95E2F7822B8ABB69
:100C400080E0089521E030E0062E02C0220F331F1D
:100C50000A94E2F7209587B32823842F90E002C0FE
:100C6000880F991F6A95E2F7822B87BB80E0089571
:100C700021E030E0062E02C0220F331F0A94E2F773
:100C8000209584B32823842F90E002C0880F991FF9
:100C90006A95E2F7822B84BB80E0089521E030E082
:100CA000062E02C0220F331F0A94E2F7209581B36B
:100CB0002823842F90E002C0880F991F6A95E2F7DD
:100CC000822B81BB80E0089583E0089583E008953E
:100CD00083E0089580E00895843008F067C06830AC
:100CE00008F066C0423008F065C08130E9F030F0AD
:100CF000823081F1833009F443C05EC081E090E02E
:100D0000062E02C0880F991F0A94E2F780952BB334
:100D10002823842F90E002C0880F991F6A95E2F77C
:100D2000822B8BBB80E0089521E030E0062E02C0CC
:100D3000220F331F0A94E2F7209588B32823842FCB
:100D400090E002C0880F991F6A95E2F7822B88BB5A
:100D500080E0089521E030E0062E02C0220F331F0C
:100D60000A94E2F7209585B32823842F90E002C0EF
:100D7000880F991F6A95E2F7822B85BB80E0089562
:100D800021E030E0062E02C0220F331F0A94E2F762
:100D9000209582B32823842F90E002C0880F991FEA
:100DA0006A95E2F7822B82BB80E0089583E0089584
:100DB00083E0089583E0089580E00895411551058A
:100DC000E1F18430E0F56830E0F5813091F028F011
:100DD0008230D9F0833029F136C089B390E002C067
:100DE000959587956A95E2F78170FA01808380E096
:100DF000089586B390E002C0959587956A95E2F7CD
:100E00008170FA01808380E0089583B390E002C08E
:100E1000959587956A95E2F78170FA01808380E065
:100E2000089580B390E002C0959587956A95E2F7A2
:100E30008170FA01808380E0089582E0089580E067
:100E4000089580E0089580E00895AC01892B09F0B1
:100E500086C082E00895E92FF0E09F01220F331F42
:100E6000E20FF31FE40FF51F2081213081F120F004
:100E7000223009F457C06AC0218121116EC025B704
:100E80002C7F25BF2281213069F028F0223089F0A3
:100E90002330B1F05DC025B72E7F25BF25B72D7F4C
:100EA00025BF5BC025B7216025BF25B72D7F25BF96
:100EB00054C025B72E7F25BF25B7226025BF4DC062
:100EC00025B7216025BF25B7226025BF46C02181F7
:100ED000211143C025B7237F25BF2281213069F02E
:100EE00028F0223089F02330B1F034C025B72B7FB1
:100EF00025BF25B7277F25BF30C025B7246025BF74
:100F000025B7277F25BF29C025B72B7F25BF25B74C
:100F1000286025BF22C025B7246025BF25B72860DB
:100F200025BF1BC02181211118C024B72F7B24BFEE
:100F30002281223019F0233029F00EC024B72F7BF4
:100F400024BF0BC024B7206424BF07C083E005C0C2
:100F500083E003C083E001C083E09F5F02C090E0B4
:100F600081E0933008F477CF08958330F0F4813036
:100F700061F018F0823089F01AC08BB78F7B8BBF7D
:100F80008BB780648BBF81E008958BB78F778BBF61
:100F90008BB780688BBF81E008958BB78F7D8BBF47
:100FA0008BB780628BBF81E0089583E0089581E074
:100FB0000895009789F0433088F450E0440F551F9E
:100FC000FA01E756FF4F91838083FA01ED56FF4FF8
:100FD0007183608380E0089582E0089583E008953E
:100FE0001F920F920FB60F9211242F933F934F939E
:100FF0005F936F937F938F939F93AF93BF93EF9381
:10100000FF93E0919900F0919A00309729F0809138
:101010009300909194000995FF91EF91BF91AF914A
:101020009F918F917F916F915F914F913F912F9100
:101030000F900FBE0F901F9018951F920F920FB632
:101040000F9211242F933F934F935F936F937F934E
:101050008F939F93AF93BF93EF93FF93E0919B0088
:10106000F0919C00309729F0809195009091960026
:101070000995FF91EF91BF91AF919F918F917F91D2
:101080006F915F914F913F912F910F900FBE0F90F5
:101090001F9018951F920F920FB60F9211242F9345
:1010A0003F934F935F936F937F938F939F93AF93F0
:1010B000BF93EF93FF93E0919D00F0919E003097D6
:1010C00029F080919700909198000995FF91EF91F8
:1010D000BF91AF919F918F917F916F915F914F9150
:1010E0003F912F910F900FBE0F901F9018958FB7C3
:1010F0008F778FBF8FB780688FBF80E0089581B1F1
:101100008C7F81B98FED80B986B7846086BF80E01F
:10111000089586B7806286BF86B7806886BF06B6A8
:1011200007FEFDCF81B1887F883011F081E00895FE
:1011300080E0089586B7806186BF86B7806886BFE5
:1011400080E00895882314F0880F83B9623018F482
:1011500083B1682B63B986B78F7D86BF86B78068F9
:1011600086BF06B607FEFDCF81B1887F883131F09A
:1011700081B1887F803421F081E0089580E0089576
:1011800080E0089583B986B7806886BF06B607FEFB
:10119000FDCF81B1887F883211F081E0089580E031
:1011A000089583B7877B83BF83B7806483BF83B78A
:1011B000886083BF83B7887F83BF83B78E7F83BFF9
:1011C00083B7826083BF83B78B7F83BF83B78F7CF6
:1011D00083BF83B78F7E83BF83B7806283BF80E086
:1011E000089590E0A0E0B0E06627782F892F9A2F2D
:1011F0000E94710A20E030E048EC52E40E94D009DD
:1012000060939F007093A0008093A1009093A20030
:101210000E94420A6CBF80E008958FB58C7F8FBD1D
:101220008EB5877E8EBD8FB581608FBD8FB58D7F6A
:101230008FBD8EB588608EBD8EB58F7E8EBD8EB50E
:10124000887F8EBD8EB58E7F8EBD8EB582608EBD41
:101250008EB58B7F8EBD8FB58F7B8FBD8FB5806830
:101260008FBD8FB58F7E8FBD8FB580628FBD81E0C2
:10127000089590E0A0E0B0E06627782F892F9A2F9C
:1012800024E630E040E050E00E94FF0A3BBD2ABD6A
:1012900080E0089590E0A0E0B0E06627782F892FE5
:1012A0009A2F24E630E040E050E00E94FF0A39BD6A
:1012B00028BD80E0089585B5877B85BD85B58064B0
:1012C00085BD85B5886085BD85B5887F85BD85B5BB
:1012D0008E7F85BD85B5826085BD85B58B7F85BDDB
:1012E00085B58F7C85BD85B58F7E85BD85B58062D2
:1012F00085BD80E0089590E0A0E0B0E06627782FFB
:10130000892F9A2F0E94710A20E030E048EC52E4C5
:101310000E94D0096093A3007093A4008093A5005D
:101320009093A6000E94420A63BD80E008950E9447
:101330007F0808950F931F93CF93DF93EC010E94D2
:101340008908588199814A813B812C81950F940F9E
:10135000930F920F9D83811118C060E081E00E947D
:10136000A208182F882369F011E012C0FE01E00FD7
:10137000F11D80810E94C208182F811108C00F5FE3
:1013800001C000E0063090F303C011E001C011E09D
:101390000E949A08812FDF91CF911F910F9108959C
:1013A0000E94E4090C94C50A0E94BE0A58F00E94EB
:1013B000B70A40F029F45F3F29F00C94AE0A5111AE
:1013C0000C94F90A0C94B40A0E94D60A68F3992383
:1013D000B1F3552391F3951B550BBB27AA27621731
:1013E0007307840738F09F5F5F4F220F331F441F3E
:1013F000AA1FA9F335D00E2E3AF0E0E832D0915072
:101400005040E695001CCAF72BD0FE2F29D0660F5E
:10141000771F881FBB1F261737074807AB07B0E8A1
:1014200009F0BB0B802DBF01FF2793585F4F3AF0A7
:101430009E3F510578F00C94AE0A0C94F90A5F3F78
:10144000E4F3983ED4F3869577956795B795F7952D
:101450009F5FC9F7880F911D9695879597F9089515
:10146000E1E0660F771F881FBB1F621773078407B1
:10147000BA0720F0621B730B840BBA0BEE1F88F7C0
:10148000E09508950E94DE0A88F09F5798F0B92FE2
:101490009927B751B0F0E1F0660F771F881F991FA9
:1014A0001AF0BA95C9F714C0B13091F00E94F80A49
:1014B000B1E008950C94F80A672F782F8827B85F59
:1014C00039F0B93FCCF3869577956795B395D9F701
:1014D0003EF490958095709561957F4F8F4F9F4F0B
:1014E0000895E89409C097FB3EF490958095709517
:1014F00061957F4F8F4F9F4F9923A9F0F92F96E960
:10150000BB279395F695879577956795B795F111D4
:10151000F8CFFAF4BB0F11F460FF1BC06F5F7F4F71
:101520008F4F9F4F16C0882311F096E911C0772383
:1015300021F09EE8872F762F05C0662371F096E88C
:10154000862F70E060E02AF09A95660F771F881F5B
:10155000DAF7880F9695879597F9089597F99F6719
:1015600080E870E060E008959FEF80EC089500242B
:101570000A941616170618060906089500240A94F8
:1015800012161306140605060895092E0394000C7E
:1015900011F4882352F0BB0F40F4BF2B11F460FF0D
:1015A00004C06F5F7F4F8F4F9F4F089557FD905836
:1015B000440F551F59F05F3F71F04795880F97FB17
:1015C000991F61F09F3F79F08795089512161306D1
:1015D0001406551FF2CF4695F1DF08C01616170600
:1015E0001806991FF1CF8695710561050894089535
:1015F000E894BB2766277727CB0197F90895A1E2E6
:101600001A2EAA1BBB1BFD010DC0AA1FBB1FEE1F7C
:10161000FF1FA217B307E407F50720F0A21BB30BC7
:10162000E40BF50B661F771F881F991F1A9469F743
:1016300060957095809590959B01AC01BD01CF019F
:101640000895052E97FB1EF400940E94380B57FD59
:1016500007D00E94FF0A07FC03D04EF40C94380B0D
:1016600050954095309521953F4F4F4F5F4F0895CE
:1016700090958095709561957F4F8F4F9F4F0895FE
:101680000E94480B332312F48A1B9B0B0C94590BBA
:10169000A29FB001B39FC001A39F700D811D1124B3
:1016A000911DB29F700D811D1124911D08950E94FE
:1016B000480BB7FF0895821B930B0895F894FFCF52
:1016C00002070B01000101030104010502010601EB
:1016D000070402060D0B0001030D0B0102050D0BA3
:0C16E000000100010001000302010000F5
:00000001FF
