:100000000C942A000C947F060C94AC060C94D90630
:100010000C9447000C9447000C9447000C94470044
:100020000C9447000C9447000C9447000C94470034
:100030000C9447000C9447000C9447000C94470024
:100040000C94E5040C9447000C9447000C94470072
:100050000C94470011241FBECFE5D8E0DEBFCDBF12
:1000600010E0A0E6B0E0EAECF3E102C005900D92EA
:10007000AC38B107D9F720E0ACE8B0E001C01D9280
:10008000A53BB207E1F70E948E040C94E3090C949F
:1000900000000E9488010E9421080E948F0081E0D8
:1000A00008950F931F93CF93DF9300D000D000D01B
:1000B000CDB7DEB78BEA90E00E9496010BEA10E024
:1000C000F8018081898381818A8382818B83838106
:1000D0008C8384818D83CE0101960E942308F801D0
:1000E000618180810E94C700F80182810E940C0119
:1000F000F80183810E942F01C8010E944D0181E017
:1001000026960FB6F894DEBF0FBECDBFDF91CF911C
:100110001F910F91089581E080936000089583E717
:1001200090E00E94970384E690E00E94220281E61C
:1001300090E00E94E00141E063E081E00E9412054E
:1001400041E064E083E00E94120541E065E083E065
:100150000E94120541E067E083E00E9412050E94C0
:100160005B070E9497070E94E50783E890E00E94E2
:10017000DF0541E060E070E08BE890E00E946806F7
:1001800081E00E944C060E94060780E008950F93CC
:100190001F93082F162F8231A8F46832B8F581E03A
:1001A0000E94420210E02AE030E042E150E064E6C2
:1001B00070E082E390E00E946F04682F81E00E946B
:1001C000760220C0853110F16E3218F081E00E9475
:1001D0005C020B31D8F0173498F080E00E944202A4
:1001E00010E028E230E04AE150E064E670E082E3AB
:1001F00090E00E946F04682F80E00E94760208C0A1
:100200000B3131F480E00E945C0202C01B34D0F359
:1002100081E01F910F9108950F931F93082F85EF91
:10022000800F833198F482E00E94420210E02AE0BD
:1002300030E04EE150E064E670E082E390E00E943E
:100240006F04682F82E00E94760205C00D3318F01B
:1002500082E00E945C0281E01F910F9108950F934C
:100260001F939BEE980F983170F4082F10E024E153
:1002700030E04DE250E064E670E082E390E00E94FE
:100280006F04682F03C08C3420F060E081E00E948E
:10029000050481E01F910F910895CF93DF93EC0146
:1002A00088818A508F3160F4898184518D3340F484
:1002B0008A818A50873420F48B8184518734A8F056
:1002C00080916000813021F480E00E94100203C020
:1002D00080E00E94FE011C8283E790E00E94E70319
:1002E0008DE790E00E94C9030FC081E08C831092DB
:1002F000600080E00E94100283E790E00E94C90342
:100300008DE790E00E94E70381E0DF91CF910895AF
:100310000E9493048CE890E00E94830382E890E0BE
:100320000E944C040E949D0280E00895EF92FF928B
:100330000F931F93CF93DF9300D000D0CDB7DEB7DC
:100340001C821B82009781F17C0160E0CE01039644
:100350000E948F030B811C812FEF33E040E050E0BF
:1003600064E670E080E090E00E946F04F701838310
:10037000BE016F5F7F4F80E00E945F0409811A8198
:100380002FEF33E040E050E064E670E080E090E082
:100390000E946F04F7018283B7016F5F7F4FC7012F
:1003A0000E94B10280E001C082E00F900F900F9098
:1003B0000F90DF91CF911F910F91FF90EF900895D3
:1003C000CF93DF930097B1F0EC0141E06981888120
:1003D0000E9412058A818A3011F441E003C08B30FB
:1003E00039F440E069818881DF91CF910C946805F0
:1003F00083E001C082E0DF91CF91089581110EC0AA
:1004000041E060916200809161000E94120541E02C
:1004100060916200809161000C94680583E008950A
:1004200081110EC041E060916200809161000E94E4
:10043000120540E060916200809161000C946805B3
:1004400083E008950F931F93CF93DF930097A1F05C
:10045000EC018C01015F1F4F41E0698188810E949E
:10046000120541E06B818A810E9412052596C01712
:10047000D10791F780E001C082E0DF91CF911F9119
:100480000F910895CF93DF93833090F495E0899F87
:10049000E0011124CC59DF4F41E0698188810E943D
:1004A000680540E06B818A810E94680580E001C098
:1004B00083E0DF91CF910895CF93DF93833090F461
:1004C00095E0899FE0011124CC59DF4F40E069811C
:1004D00088810E94680540E06B818A810E946805DE
:1004E00080E001C083E0DF91CF910895E82F833051
:1004F00000F56536F0F4862F95E0E99FF0011124B0
:10050000EC59FF4F9481923069F028F4913099F4BE
:100510000E947B070CC0933041F0943061F40E943C
:10052000050805C00E94C30702C00E94D40780E0EE
:10053000089583E0089581E0089541E066E083E056
:100540000E94120541E066E083E00E9468052FEFFB
:1005500089E698E1215080409040E1F700C000001A
:1005600008955F926F927F928F929F92AF92BF9207
:10057000CF92DF92EF92FF920F931F93CF93DF936F
:100580001F92CDB7DEB74C015B0141E066E083E02E
:100590000E94120540E066E083E00E9468058FE952
:1005A0009CE80197F1F700C0000041E066E083E0BD
:1005B0000E94680540E066E083E00E9412059AE62A
:1005C0009A95F1F700C0AE014F5F5F4F66E083E0A0
:1005D0000E94BE05898181117CC0E5EDEA95F1F7A5
:1005E0000000AE014F5F5F4F66E083E00E94BE05F2
:1005F00011E08981813009F010E08981813041F476
:10060000AE014F5F5F4F66E083E00E94BE05F5CF0D
:10061000112309F45EC080EBE82E80E0F82E95EB04
:10062000692E90E0792ECC24C394D12C07E010E001
:10063000512C8981811108C0AE014F5F5F4F66E088
:1006400083E00E94BE05F5CFF0E5FA95F1F7AE0123
:100650004F5F5F4F66E083E00E94BE058981813075
:1006600041F4C601002E01C0880F0A94EAF7582A07
:1006700009C0C601002E01C0880F0A94EAF78095D0
:1006800058220BC08981813041F4AE014F5F5F4F2A
:1006900066E083E00E94BE05F5CF0150110948F6DF
:1006A000F70151927F016E167F0609F0BFCF90913E
:1006B000B0008091B100980F8091B200980F8091A6
:1006C000B300980F81E02091B400921303C080E042
:1006D00001C081E09091B200F40190839091B0004C
:1006E000F50190830F90DF91CF911F910F91FF90B3
:1006F000EF90DF90CF90BF90AF909F908F907F90C2
:100700006F905F900895FC01608171816F3F71056A
:1007100021F040E080E00C94120581E008950097FC
:1007200021F00E94C90480E0089582E008950F93AB
:100730001F93CF93DF93009731F1EC018C01015FA0
:100740001F4F41E0698188810E9412058A818C30A7
:1007500059F48B818A3079F08B3079F441E06981EA
:1007600088810E9468050AC08D3039F48B818A30F7
:10077000A9F38B3011F440E0F2CF83E02596C01747
:10078000D107F9F601C082E0DF91CF911F910F915F
:100790000895CF93DF930097A1F0EC0141E06981C8
:1007A00088810E9412058A818C3011F440E003C0D8
:1007B0008D3049F441E069818881DF91CF910C94BB
:1007C000680582E001C083E0DF91CF910895CF9367
:1007D000DF930097A1F0EC0141E0698188810E94DC
:1007E00012058A818C3011F441E003C08D3049F448
:1007F00040E069818881DF91CF910C94680582E0A7
:1008000001C083E0DF91CF910895282F833008F055
:100810003FC06536E8F5862F30E061110AC085E0FB
:10082000829FF001839FF00D1124ED58FF4F40E0AF
:100830000BC0643671F485E0829FF001839FF00D58
:100840001124ED58FF4F41E0618180810E946805CD
:1008500021C095E0929FF001939FF00D1124ED5877
:10086000FF4F9481923069F028F4913099F40E94FE
:100870007B070CC0933041F0943061F40E9405086E
:1008800005C00E94C30702C00E94D40780E00895FB
:1008900083E0089581E00895CF93DF93EC010E94F7
:1008A000930440E0688180E00E94120588810E94E4
:1008B000AB040E94A20480E0DF91CF9108956115FE
:1008C000710549F0811109C0CB01609182000E943D
:1008D000C90481E0089582E0089583E008950F93AC
:1008E0001F93CF93DF93EC01F9019B01281B390B78
:1008F000D801A41BB50B0E94C5099F01241B350B11
:10090000032E000C440B550B0E94A609CE01820F4A
:10091000931FDF91CF911F910F9108950E9449007D
:100920000E945100FDCF87B18F7387B93E983F98E1
:100930003D983D9886B1887F86B9309A319A329831
:1009400081E00895379A81E00895379881E008950D
:10095000369A81E0089597B1907E97B997B1892B27
:1009600087B981E00895349BFECF349A81E00895E1
:10097000339881E0089524B130E0FC013183208375
:1009800045B1342B3183208381E00895359881E08F
:1009900008951F93CF93DF93EC01162F0E94A204BA
:1009A0000E94C604812F0E94AB040E94A8040E94EA
:1009B000B8040E94B304CE010E94BB040E94A504A7
:1009C00081E0DF91CF911F9108951F920F920FB692
:1009D0000F9211242F933F934F935F936F937F93C5
:1009E0008F939F93AF93BF93EF93FF93E09190000A
:1009F000F0919100309729F080918E0090918F00B6
:100A00000995FF91EF91BF91AF919F918F917F9148
:100A10006F915F914F913F912F910F900FBE0F906B
:100A20001F901895843008F051C0683008F04EC00F
:100A3000423008F04BC0823039F18330B1F181305F
:100A400089F081E090E0062E01C0880F0A94EAF751
:100A500080959AB3892301C0440F6A95EAF7482B21
:100A60004ABB10C081E090E0062E01C0880F0A94B6
:100A7000EAF7809597B3892301C0440F6A95EAF796
:100A8000482B47BB80E0089581E090E0062E01C02E
:100A9000880F0A94EAF7809594B3892301C0440F24
:100AA0006A95EAF7482B44BBEDCF81E090E0062E33
:100AB00001C0880F0A94EAF7809591B3892301C099
:100AC000440F6A95EAF7482B41BBDCCF83E00895D9
:100AD000843008F051C0683008F04EC0423008F051
:100AE0004BC0823039F18330B1F1813089F081E03F
:100AF00090E0062E01C0880F0A94EAF780959BB318
:100B0000892301C0440F6A95EAF7482B4BBB10C0FC
:100B100081E090E0062E01C0880F0A94EAF78095E4
:100B200098B3892301C0440F6A95EAF7482B48BB64
:100B300080E0089581E090E0062E01C0880F0A94BD
:100B4000EAF7809595B3892301C0440F6A95EAF7C7
:100B5000482B45BBEDCF81E090E0062E01C0880F09
:100B60000A94EAF7809592B3892301C0440F6A95ED
:100B7000EAF7482B42BBDCCF83E00895FA013097B7
:100B8000D1F08430D0F46830C0F4823041F083304A
:100B900041F0813011F089B305C086B303C083B33F
:100BA00001C080B390E002C0959587956A95E2F701
:100BB0008170808302C082E0089580E008950097EC
:100BC00009F468C0FC019C01275F3F4F81E09081E0
:100BD000913031F120F0923009F443C054C091813A
:100BE000911152C095B79C7F95BF9281913061F071
:100BF00040F0923079F0933009F045C095B791609C
:100C00000BC095B79E7F02C095B7916095BF95B711
:100C10009D7F25C095B79E7F95BF95B792601FC0F9
:100C20009181911131C095B7937F95BF9281913099
:100C300059F038F0923071F0933029F595B79460FF
:100C40000BC095B79B7F02C095B7946095BF95B7D1
:100C5000977F05C095B79B7F95BF95B7986095BF67
:100C600013C09181911110C094B79F7B94BF928162
:100C7000923029F0933039F494B7906402C094B75D
:100C80009F7B94BF01C083E033962E173F0709F086
:100C90009ECF089582E008958330C0F4813041F002
:100CA000823061F08BB78F7B8BBF8BB780640BC0BA
:100CB0008BB78F778BBF8BB7806805C08BB78F7D65
:100CC0008BBF8BB780628BBF81E0089583E008956E
:100CD000009789F0433088F450E0440F551FFA0123
:100CE000E856FF4F91838083FA01EE56FF4F7183E0
:100CF000608380E0089582E0089583E008951F9264
:100D00000F920FB60F9211242F933F934F935F933F
:100D10006F937F938F939F93AF93BF93EF93FF93C3
:100D2000E0919800F0919900309729F0809192001D
:100D3000909193000995FF91EF91BF91AF919F9191
:100D40008F917F916F915F914F913F912F910F9074
:100D50000FBE0F901F9018951F920F920FB60F9213
:100D600011242F933F934F935F936F937F938F93B0
:100D70009F93AF93BF93EF93FF93E0919A00F0910D
:100D80009B00309729F080919400909195000995EF
:100D9000FF91EF91BF91AF919F918F917F916F9153
:100DA0005F914F913F912F910F900FBE0F901F9029
:100DB00018951F920F920FB60F9211242F933F9305
:100DC0004F935F936F937F938F939F93AF93BF9353
:100DD000EF93FF93E0919C00F0919D00309729F0F4
:100DE00080919600909197000995FF91EF91BF91A6
:100DF000AF919F918F917F916F915F914F913F91B3
:100E00002F910F900FBE0F901F9018958FB78F776F
:100E10008FBF8FB780688FBF80E0089581B18C7FCE
:100E200081B98FED80B986B7846086BF80E0089570
:100E300086B7806286BF86B7806886BF06B607FE23
:100E4000FDCF91B1987F81E0983009F480E008955A
:100E500086B7806186BF86B7806886BF80E00895C8
:100E600087FD02C0880F83B9623018F483B1682B04
:100E700063B986B78F7D86BF86B7806886BF06B6A2
:100E800007FEFDCF81B1887F883129F091B1987F2D
:100E900081E0903409F480E0089583B986B78068D2
:100EA00086BF06B607FEFDCF91B1987F81E09832EC
:100EB00009F480E0089583B7877B83BF83B780649C
:100EC00083BF83B7886083BF83B7887F83BF83B7BF
:100ED0008E7F83BF83B7826083BF83B78B7F83BFDF
:100EE00083B78F7C83BF83B78F7E83BF83B78062D6
:100EF00083BF80E0089590E0A0E0B0E06627782FFF
:100F0000892F9A2F0E94F60820E030E048EC52E446
:100F10000E94550860939E0070939F008093A000EC
:100F20009093A1000E94C7086CBF80E008958FB520
:100F30008C7F8FBD8EB5877E8EBD8FB581608FBD56
:100F40008FB58D7F8FBD8EB588608EBD8EB58F7E3F
:100F50008EBD8EB5887F8EBD8EB58E7F8EBD8EB5D3
:100F600082608EBD8EB58B7F8EBD8FB58F7B8FBD22
:100F70008FB580688FBD8FB58F7E8FBD8FB5806236
:100F80008FBD81E0089590E0A0E0B0E06627782F63
:100F9000892F9A2F24E630E040E050E00E94840937
:100FA0003BBD2ABD80E0089590E0A0E0B0E0662758
:100FB000782F892F9A2F24E630E040E050E00E94FD
:100FC000840939BD28BD80E0089585B5877B85BD3E
:100FD00085B5806485BD85B5886085BD85B5887F0C
:100FE00085BD85B58E7F85BD85B5826085BD85B59E
:100FF0008B7F85BD85B58F7C85BD85B58F7E85BD95
:1010000085B5806285BD80E0089590E0A0E0B0E005
:101010006627782F892F9A2F0E94F60820E030E06B
:1010200048EC52E40E9455086093A2007093A3001C
:101030008093A4009093A5000E94C70863BD80E040
:1010400008950C940E07EF92FF921F93CF93DF93B6
:10105000EC010E94180728819981920F2A81920F32
:101060002B81920F2C81920F9D83882311F011E028
:1010700013C060E081E00E9430078111F8CF7E014B
:1010800086E0E80EF11C89910E944D07182F81110E
:10109000EECFCE15DF05B9F70E942807812FDF912B
:1010A000CF911F91FF90EF9008950E9469080C94D2
:1010B0004A090E94430958F00E943C0940F029F473
:1010C0005F3F29F00C94330951110C947E090C9464
:1010D00039090E945B0968F39923B1F3552391F311
:1010E000951B550BBB27AA2762177307840738F097
:1010F0009F5F5F4F220F331F441FAA1FA9F335D0F4
:101100000E2E3AF0E0E832D091505040E695001CA7
:10111000CAF72BD0FE2F29D0660F771F881FBB1F61
:10112000261737074807AB07B0E809F0BB0B802D3F
:10113000BF01FF2793585F4F3AF09E3F510578F06B
:101140000C9433090C947E095F3FE4F3983ED4F38A
:10115000869577956795B795F7959F5FC9F7880F3F
:10116000911D9695879597F90895E1E0660F771F91
:10117000881FBB1F621773078407BA0720F0621B22
:10118000730B840BBA0BEE1F88F7E09508950E944D
:10119000630988F09F5798F0B92F9927B751B0F09D
:1011A000E1F0660F771F881F991F1AF0BA95C9F7EB
:1011B00014C0B13091F00E947D09B1E008950C9403
:1011C0007D09672F782F8827B85F39F0B93FCCF3B6
:1011D000869577956795B395D9F73EF49095809568
:1011E000709561957F4F8F4F9F4F0895E89409C088
:1011F00097FB3EF490958095709561957F4F8F4F4A
:101200009F4F9923A9F0F92F96E9BB279395F6955F
:10121000879577956795B795F111F8CFFAF4BB0FDD
:1012200011F460FF1BC06F5F7F4F8F4F9F4F16C041
:10123000882311F096E911C0772321F09EE8872FCB
:10124000762F05C0662371F096E8862F70E060E087
:101250002AF09A95660F771F881FDAF7880F969500
:10126000879597F9089597F99F6780E870E060E0A7
:1012700008959FEF80EC089500240A94161617062F
:1012800018060906089500240A9412161306140677
:1012900005060895092E0394000C11F4882352F0DA
:1012A000BB0F40F4BF2B11F460FF04C06F5F7F4F92
:1012B0008F4F9F4F089557FD9058440F551F59F079
:1012C0005F3F71F04795880F97FB991F61F09F3F33
:1012D00079F087950895121613061406551FF2CF5C
:1012E0004695F1DF08C0161617061806991FF1CFAC
:1012F00086957105610508940895E894BB276627D3
:101300007727CB0197F90895A1E21A2EAA1BBB1BE0
:10131000FD010DC0AA1FBB1FEE1FFF1FA217B307C1
:10132000E407F50720F0A21BB30BE40BF50B661FD7
:10133000771F881F991F1A9469F76095709580959B
:1013400090959B01AC01BD01CF010895052E97FB3F
:101350001EF400940E94BD0957FD07D00E94840925
:1013600007FC03D04EF40C94BD0950954095309580
:1013700021953F4F4F4F5F4F089590958095709501
:1013800061957F4F8F4F9F4F08950E94CD09332362
:1013900012F48A1B9B0B0C94DE09A29FB001B39F31
:1013A000C001A39F700D811D1124911DB29F700D6E
:1013B000811D1124911D08950E94CD09B7FF089544
:0A13C000821B930B0895F894FFCFF1
:1013CA000102070B010001010301040105020106E4
:1013DA0001070402060D0B0001030D0B0102050DA6
:0C13EA000B0001000100010003020100E3
:00000001FF
